{
  "_format": "hh-sol-artifact-1",
  "contractName": "GovernanceTokenWrapped",
  "sourceName": "contracts/GovernanceTokenWrapped.sol",
  "abi": [
    {
      "inputs": [
        {
          "internalType": "contract IERC20",
          "name": "underlyingToken",
          "type": "address"
        }
      ],
      "stateMutability": "nonpayable",
      "type": "constructor"
    },
    {
      "anonymous": false,
      "inputs": [
        {
          "indexed": true,
          "internalType": "address",
          "name": "owner",
          "type": "address"
        },
        {
          "indexed": true,
          "internalType": "address",
          "name": "spender",
          "type": "address"
        },
        {
          "indexed": false,
          "internalType": "uint256",
          "name": "value",
          "type": "uint256"
        }
      ],
      "name": "Approval",
      "type": "event"
    },
    {
      "anonymous": false,
      "inputs": [
        {
          "indexed": true,
          "internalType": "address",
          "name": "delegator",
          "type": "address"
        },
        {
          "indexed": true,
          "internalType": "address",
          "name": "fromDelegate",
          "type": "address"
        },
        {
          "indexed": true,
          "internalType": "address",
          "name": "toDelegate",
          "type": "address"
        }
      ],
      "name": "DelegateChanged",
      "type": "event"
    },
    {
      "anonymous": false,
      "inputs": [
        {
          "indexed": true,
          "internalType": "address",
          "name": "delegate",
          "type": "address"
        },
        {
          "indexed": false,
          "internalType": "uint256",
          "name": "previousBalance",
          "type": "uint256"
        },
        {
          "indexed": false,
          "internalType": "uint256",
          "name": "newBalance",
          "type": "uint256"
        }
      ],
      "name": "DelegateVotesChanged",
      "type": "event"
    },
    {
      "anonymous": false,
      "inputs": [
        {
          "indexed": true,
          "internalType": "address",
          "name": "from",
          "type": "address"
        },
        {
          "indexed": true,
          "internalType": "address",
          "name": "to",
          "type": "address"
        },
        {
          "indexed": false,
          "internalType": "uint256",
          "name": "value",
          "type": "uint256"
        }
      ],
      "name": "Transfer",
      "type": "event"
    },
    {
      "inputs": [],
      "name": "DOMAIN_SEPARATOR",
      "outputs": [
        {
          "internalType": "bytes32",
          "name": "",
          "type": "bytes32"
        }
      ],
      "stateMutability": "view",
      "type": "function"
    },
    {
      "inputs": [
        {
          "internalType": "address",
          "name": "owner",
          "type": "address"
        },
        {
          "internalType": "address",
          "name": "spender",
          "type": "address"
        }
      ],
      "name": "allowance",
      "outputs": [
        {
          "internalType": "uint256",
          "name": "",
          "type": "uint256"
        }
      ],
      "stateMutability": "view",
      "type": "function"
    },
    {
      "inputs": [
        {
          "internalType": "address",
          "name": "spender",
          "type": "address"
        },
        {
          "internalType": "uint256",
          "name": "amount",
          "type": "uint256"
        }
      ],
      "name": "approve",
      "outputs": [
        {
          "internalType": "bool",
          "name": "",
          "type": "bool"
        }
      ],
      "stateMutability": "nonpayable",
      "type": "function"
    },
    {
      "inputs": [
        {
          "internalType": "address",
          "name": "account",
          "type": "address"
        }
      ],
      "name": "balanceOf",
      "outputs": [
        {
          "internalType": "uint256",
          "name": "",
          "type": "uint256"
        }
      ],
      "stateMutability": "view",
      "type": "function"
    },
    {
      "inputs": [
        {
          "internalType": "address",
          "name": "account",
          "type": "address"
        },
        {
          "internalType": "uint32",
          "name": "pos",
          "type": "uint32"
        }
      ],
      "name": "checkpoints",
      "outputs": [
        {
          "components": [
            {
              "internalType": "uint32",
              "name": "fromBlock",
              "type": "uint32"
            },
            {
              "internalType": "uint224",
              "name": "votes",
              "type": "uint224"
            }
          ],
          "internalType": "struct ERC20Votes.Checkpoint",
          "name": "",
          "type": "tuple"
        }
      ],
      "stateMutability": "view",
      "type": "function"
    },
    {
      "inputs": [],
      "name": "decimals",
      "outputs": [
        {
          "internalType": "uint8",
          "name": "",
          "type": "uint8"
        }
      ],
      "stateMutability": "view",
      "type": "function"
    },
    {
      "inputs": [
        {
          "internalType": "address",
          "name": "spender",
          "type": "address"
        },
        {
          "internalType": "uint256",
          "name": "subtractedValue",
          "type": "uint256"
        }
      ],
      "name": "decreaseAllowance",
      "outputs": [
        {
          "internalType": "bool",
          "name": "",
          "type": "bool"
        }
      ],
      "stateMutability": "nonpayable",
      "type": "function"
    },
    {
      "inputs": [
        {
          "internalType": "address",
          "name": "delegatee",
          "type": "address"
        }
      ],
      "name": "delegate",
      "outputs": [],
      "stateMutability": "nonpayable",
      "type": "function"
    },
    {
      "inputs": [
        {
          "internalType": "address",
          "name": "delegatee",
          "type": "address"
        },
        {
          "internalType": "uint256",
          "name": "nonce",
          "type": "uint256"
        },
        {
          "internalType": "uint256",
          "name": "expiry",
          "type": "uint256"
        },
        {
          "internalType": "uint8",
          "name": "v",
          "type": "uint8"
        },
        {
          "internalType": "bytes32",
          "name": "r",
          "type": "bytes32"
        },
        {
          "internalType": "bytes32",
          "name": "s",
          "type": "bytes32"
        }
      ],
      "name": "delegateBySig",
      "outputs": [],
      "stateMutability": "nonpayable",
      "type": "function"
    },
    {
      "inputs": [
        {
          "internalType": "address",
          "name": "account",
          "type": "address"
        }
      ],
      "name": "delegates",
      "outputs": [
        {
          "internalType": "address",
          "name": "",
          "type": "address"
        }
      ],
      "stateMutability": "view",
      "type": "function"
    },
    {
      "inputs": [
        {
          "internalType": "address",
          "name": "account",
          "type": "address"
        },
        {
          "internalType": "uint256",
          "name": "amount",
          "type": "uint256"
        }
      ],
      "name": "depositFor",
      "outputs": [
        {
          "internalType": "bool",
          "name": "",
          "type": "bool"
        }
      ],
      "stateMutability": "nonpayable",
      "type": "function"
    },
    {
      "inputs": [
        {
          "internalType": "uint256",
          "name": "blockNumber",
          "type": "uint256"
        }
      ],
      "name": "getPastTotalSupply",
      "outputs": [
        {
          "internalType": "uint256",
          "name": "",
          "type": "uint256"
        }
      ],
      "stateMutability": "view",
      "type": "function"
    },
    {
      "inputs": [
        {
          "internalType": "address",
          "name": "account",
          "type": "address"
        },
        {
          "internalType": "uint256",
          "name": "blockNumber",
          "type": "uint256"
        }
      ],
      "name": "getPastVotes",
      "outputs": [
        {
          "internalType": "uint256",
          "name": "",
          "type": "uint256"
        }
      ],
      "stateMutability": "view",
      "type": "function"
    },
    {
      "inputs": [
        {
          "internalType": "address",
          "name": "account",
          "type": "address"
        }
      ],
      "name": "getVotes",
      "outputs": [
        {
          "internalType": "uint256",
          "name": "",
          "type": "uint256"
        }
      ],
      "stateMutability": "view",
      "type": "function"
    },
    {
      "inputs": [
        {
          "internalType": "address",
          "name": "spender",
          "type": "address"
        },
        {
          "internalType": "uint256",
          "name": "addedValue",
          "type": "uint256"
        }
      ],
      "name": "increaseAllowance",
      "outputs": [
        {
          "internalType": "bool",
          "name": "",
          "type": "bool"
        }
      ],
      "stateMutability": "nonpayable",
      "type": "function"
    },
    {
      "inputs": [],
      "name": "name",
      "outputs": [
        {
          "internalType": "string",
          "name": "",
          "type": "string"
        }
      ],
      "stateMutability": "view",
      "type": "function"
    },
    {
      "inputs": [
        {
          "internalType": "address",
          "name": "owner",
          "type": "address"
        }
      ],
      "name": "nonces",
      "outputs": [
        {
          "internalType": "uint256",
          "name": "",
          "type": "uint256"
        }
      ],
      "stateMutability": "view",
      "type": "function"
    },
    {
      "inputs": [
        {
          "internalType": "address",
          "name": "account",
          "type": "address"
        }
      ],
      "name": "numCheckpoints",
      "outputs": [
        {
          "internalType": "uint32",
          "name": "",
          "type": "uint32"
        }
      ],
      "stateMutability": "view",
      "type": "function"
    },
    {
      "inputs": [
        {
          "internalType": "address",
          "name": "owner",
          "type": "address"
        },
        {
          "internalType": "address",
          "name": "spender",
          "type": "address"
        },
        {
          "internalType": "uint256",
          "name": "value",
          "type": "uint256"
        },
        {
          "internalType": "uint256",
          "name": "deadline",
          "type": "uint256"
        },
        {
          "internalType": "uint8",
          "name": "v",
          "type": "uint8"
        },
        {
          "internalType": "bytes32",
          "name": "r",
          "type": "bytes32"
        },
        {
          "internalType": "bytes32",
          "name": "s",
          "type": "bytes32"
        }
      ],
      "name": "permit",
      "outputs": [],
      "stateMutability": "nonpayable",
      "type": "function"
    },
    {
      "inputs": [],
      "name": "symbol",
      "outputs": [
        {
          "internalType": "string",
          "name": "",
          "type": "string"
        }
      ],
      "stateMutability": "view",
      "type": "function"
    },
    {
      "inputs": [],
      "name": "totalSupply",
      "outputs": [
        {
          "internalType": "uint256",
          "name": "",
          "type": "uint256"
        }
      ],
      "stateMutability": "view",
      "type": "function"
    },
    {
      "inputs": [
        {
          "internalType": "address",
          "name": "to",
          "type": "address"
        },
        {
          "internalType": "uint256",
          "name": "amount",
          "type": "uint256"
        }
      ],
      "name": "transfer",
      "outputs": [
        {
          "internalType": "bool",
          "name": "",
          "type": "bool"
        }
      ],
      "stateMutability": "nonpayable",
      "type": "function"
    },
    {
      "inputs": [
        {
          "internalType": "address",
          "name": "from",
          "type": "address"
        },
        {
          "internalType": "address",
          "name": "to",
          "type": "address"
        },
        {
          "internalType": "uint256",
          "name": "amount",
          "type": "uint256"
        }
      ],
      "name": "transferFrom",
      "outputs": [
        {
          "internalType": "bool",
          "name": "",
          "type": "bool"
        }
      ],
      "stateMutability": "nonpayable",
      "type": "function"
    },
    {
      "inputs": [],
      "name": "underlying",
      "outputs": [
        {
          "internalType": "contract IERC20",
          "name": "",
          "type": "address"
        }
      ],
      "stateMutability": "view",
      "type": "function"
    },
    {
      "inputs": [
        {
          "internalType": "address",
          "name": "account",
          "type": "address"
        },
        {
          "internalType": "uint256",
          "name": "amount",
          "type": "uint256"
        }
      ],
      "name": "withdrawTo",
      "outputs": [
        {
          "internalType": "bool",
          "name": "",
          "type": "bool"
        }
      ],
      "stateMutability": "nonpayable",
      "type": "function"
    }
  ],
  "bytecode": "0x6101806040527f6e71edae12b1b97f4d1f60370fef10105fa2faae0126114a169c64845d6126c9610140908152503480156200003a57600080fd5b50604051620048d2380380620048d28339818101604052810190620000609190620003c8565b806040518060400160405280600c81526020017f476f76546f6b656e577261700000000000000000000000000000000000000000815250806040518060400160405280600181526020017f31000000000000000000000000000000000000000000000000000000000000008152506040518060400160405280600c81526020017f476f76546f6b656e5772617000000000000000000000000000000000000000008152506040518060400160405280600481526020017f47544b57000000000000000000000000000000000000000000000000000000008152508160039080519060200190620001529291906200029a565b5080600490805190602001906200016b9291906200029a565b50505060008280519060200120905060008280519060200120905060007f8b73c3c69bb8fe3d512ecc4cf759cc79239f7b179b0ffacaa9a75d522b39400f90508260e081815250508161010081815250504660a08181525050620001d78184846200025e60201b60201c565b608081815250503073ffffffffffffffffffffffffffffffffffffffff1660c08173ffffffffffffffffffffffffffffffffffffffff16815250508061012081815250505050505050508073ffffffffffffffffffffffffffffffffffffffff166101608173ffffffffffffffffffffffffffffffffffffffff1681525050505062000503565b600083838346306040516020016200027b95949392919062000441565b6040516020818303038152906040528051906020012090509392505050565b828054620002a890620004cd565b90600052602060002090601f016020900481019282620002cc576000855562000318565b82601f10620002e757805160ff191683800117855562000318565b8280016001018555821562000318579182015b8281111562000317578251825591602001919060010190620002fa565b5b5090506200032791906200032b565b5090565b5b80821115620003465760008160009055506001016200032c565b5090565b600080fd5b600073ffffffffffffffffffffffffffffffffffffffff82169050919050565b60006200037c826200034f565b9050919050565b600062000390826200036f565b9050919050565b620003a28162000383565b8114620003ae57600080fd5b50565b600081519050620003c28162000397565b92915050565b600060208284031215620003e157620003e06200034a565b5b6000620003f184828501620003b1565b91505092915050565b6000819050919050565b6200040f81620003fa565b82525050565b6000819050919050565b6200042a8162000415565b82525050565b6200043b816200036f565b82525050565b600060a08201905062000458600083018862000404565b62000467602083018762000404565b62000476604083018662000404565b6200048560608301856200041f565b62000494608083018462000430565b9695505050505050565b7f4e487b7100000000000000000000000000000000000000000000000000000000600052602260045260246000fd5b60006002820490506001821680620004e657607f821691505b60208210811415620004fd57620004fc6200049e565b5b50919050565b60805160a05160c05160e0516101005161012051610140516101605161435b6200057760003960008181610657015281816106bd01526108d401526000610e330152600061177e015260006117c00152600061179f015260006116d40152600061172a01526000611753015261435b6000f3fe608060405234801561001057600080fd5b50600436106101735760003560e01c80636f307dc3116100de5780639ab24eb011610097578063c3cda52011610071578063c3cda520146104e8578063d505accf14610504578063dd62ed3e14610520578063f1127ed81461055057610173565b80639ab24eb014610458578063a457c2d714610488578063a9059cbb146104b857610173565b80636f307dc31461035c5780636fcfff451461037a57806370a08231146103aa5780637ecebe00146103da5780638e539e8c1461040a57806395d89b411461043a57610173565b8063313ce56711610130578063313ce567146102745780633644e5151461029257806339509351146102b05780633a46b1a8146102e0578063587cde1e146103105780635c19a95c1461034057610173565b806306fdde0314610178578063095ea7b31461019657806318160ddd146101c6578063205c2878146101e457806323b872dd146102145780632f4f21e214610244575b600080fd5b610180610580565b60405161018d9190612b46565b60405180910390f35b6101b060048036038101906101ab9190612c01565b610612565b6040516101bd9190612c5c565b60405180910390f35b6101ce610635565b6040516101db9190612c86565b60405180910390f35b6101fe60048036038101906101f99190612c01565b61063f565b60405161020b9190612c5c565b60405180910390f35b61022e60048036038101906102299190612ca1565b610687565b60405161023b9190612c5c565b60405180910390f35b61025e60048036038101906102599190612c01565b6106b6565b60405161026b9190612c5c565b60405180910390f35b61027c6106ff565b6040516102899190612d10565b60405180910390f35b61029a610708565b6040516102a79190612d44565b60405180910390f35b6102ca60048036038101906102c59190612c01565b610717565b6040516102d79190612c5c565b60405180910390f35b6102fa60048036038101906102f59190612c01565b6107c1565b6040516103079190612c86565b60405180910390f35b61032a60048036038101906103259190612d5f565b610855565b6040516103379190612d9b565b60405180910390f35b61035a60048036038101906103559190612d5f565b6108be565b005b6103646108d2565b6040516103719190612e15565b60405180910390f35b610394600480360381019061038f9190612d5f565b6108f6565b6040516103a19190612e4f565b60405180910390f35b6103c460048036038101906103bf9190612d5f565b61094a565b6040516103d19190612c86565b60405180910390f35b6103f460048036038101906103ef9190612d5f565b610992565b6040516104019190612c86565b60405180910390f35b610424600480360381019061041f9190612e6a565b6109e2565b6040516104319190612c86565b60405180910390f35b610442610a38565b60405161044f9190612b46565b60405180910390f35b610472600480360381019061046d9190612d5f565b610aca565b60405161047f9190612c86565b60405180910390f35b6104a2600480360381019061049d9190612c01565b610bdb565b6040516104af9190612c5c565b60405180910390f35b6104d260048036038101906104cd9190612c01565b610cc5565b6040516104df9190612c5c565b60405180910390f35b61050260048036038101906104fd9190612eef565b610ce8565b005b61051e60048036038101906105199190612f7c565b610dec565b005b61053a6004803603810190610535919061301e565b610f2e565b6040516105479190612c86565b60405180910390f35b61056a6004803603810190610565919061308a565b610fb5565b604051610577919061313f565b60405180910390f35b60606003805461058f90613189565b80601f01602080910402602001604051908101604052809291908181526020018280546105bb90613189565b80156106085780601f106105dd57610100808354040283529160200191610608565b820191906000526020600020905b8154815290600101906020018083116105eb57829003601f168201915b5050505050905090565b60008061061d6110c5565b905061062a8185856110cd565b600191505092915050565b6000600254905090565b600061065261064c6110c5565b83611298565b61067d7f000000000000000000000000000000000000000000000000000000000000000084846112a6565b6001905092915050565b6000806106926110c5565b905061069f85828561132c565b6106aa8585856113b8565b60019150509392505050565b60006106eb7f00000000000000000000000000000000000000000000000000000000000000006106e46110c5565b3085611639565b6106f583836116c2565b6001905092915050565b60006012905090565b60006107126116d0565b905090565b6000806107226110c5565b90506107b6818585600160008673ffffffffffffffffffffffffffffffffffffffff1673ffffffffffffffffffffffffffffffffffffffff16815260200190815260200160002060008973ffffffffffffffffffffffffffffffffffffffff1673ffffffffffffffffffffffffffffffffffffffff168152602001908152602001600020546107b191906131ea565b6110cd565b600191505092915050565b6000438210610805576040517f08c379a00000000000000000000000000000000000000000000000000000000081526004016107fc9061328c565b60405180910390fd5b61084d600760008573ffffffffffffffffffffffffffffffffffffffff1673ffffffffffffffffffffffffffffffffffffffff168152602001908152602001600020836117ea565b905092915050565b6000600660008373ffffffffffffffffffffffffffffffffffffffff1673ffffffffffffffffffffffffffffffffffffffff16815260200190815260200160002060009054906101000a900473ffffffffffffffffffffffffffffffffffffffff169050919050565b6108cf6108c96110c5565b826118f6565b50565b7f000000000000000000000000000000000000000000000000000000000000000081565b6000610943600760008473ffffffffffffffffffffffffffffffffffffffff1673ffffffffffffffffffffffffffffffffffffffff16815260200190815260200160002080549050611a10565b9050919050565b60008060008373ffffffffffffffffffffffffffffffffffffffff1673ffffffffffffffffffffffffffffffffffffffff168152602001908152602001600020549050919050565b60006109db600560008473ffffffffffffffffffffffffffffffffffffffff1673ffffffffffffffffffffffffffffffffffffffff168152602001908152602001600020611a63565b9050919050565b6000438210610a26576040517f08c379a0000000000000000000000000000000000000000000000000000000008152600401610a1d9061328c565b60405180910390fd5b610a316008836117ea565b9050919050565b606060048054610a4790613189565b80601f0160208091040260200160405190810160405280929190818152602001828054610a7390613189565b8015610ac05780601f10610a9557610100808354040283529160200191610ac0565b820191906000526020600020905b815481529060010190602001808311610aa357829003601f168201915b5050505050905090565b600080600760008473ffffffffffffffffffffffffffffffffffffffff1673ffffffffffffffffffffffffffffffffffffffff16815260200190815260200160002080549050905060008114610bb257600760008473ffffffffffffffffffffffffffffffffffffffff1673ffffffffffffffffffffffffffffffffffffffff168152602001908152602001600020600182610b6691906132ac565b81548110610b7757610b766132e0565b5b9060005260206000200160000160049054906101000a90047bffffffffffffffffffffffffffffffffffffffffffffffffffffffff16610bb5565b60005b7bffffffffffffffffffffffffffffffffffffffffffffffffffffffff16915050919050565b600080610be66110c5565b90506000600160008373ffffffffffffffffffffffffffffffffffffffff1673ffffffffffffffffffffffffffffffffffffffff16815260200190815260200160002060008673ffffffffffffffffffffffffffffffffffffffff1673ffffffffffffffffffffffffffffffffffffffff16815260200190815260200160002054905083811015610cac576040517f08c379a0000000000000000000000000000000000000000000000000000000008152600401610ca390613381565b60405180910390fd5b610cb982868684036110cd565b60019250505092915050565b600080610cd06110c5565b9050610cdd8185856113b8565b600191505092915050565b83421115610d2b576040517f08c379a0000000000000000000000000000000000000000000000000000000008152600401610d22906133ed565b60405180910390fd5b6000610d8d610d857fe48329057bfd03d55e49b547132e39cffd9c1820ad7b9d4c5307691425d15adf898989604051602001610d6a949392919061340d565b60405160208183030381529060405280519060200120611a71565b858585611a8b565b9050610d9881611ab6565b8614610dd9576040517f08c379a0000000000000000000000000000000000000000000000000000000008152600401610dd09061349e565b60405180910390fd5b610de381886118f6565b50505050505050565b83421115610e2f576040517f08c379a0000000000000000000000000000000000000000000000000000000008152600401610e269061350a565b60405180910390fd5b60007f0000000000000000000000000000000000000000000000000000000000000000888888610e5e8c611ab6565b89604051602001610e749695949392919061352a565b6040516020818303038152906040528051906020012090506000610e9782611a71565b90506000610ea782878787611a8b565b90508973ffffffffffffffffffffffffffffffffffffffff168173ffffffffffffffffffffffffffffffffffffffff1614610f17576040517f08c379a0000000000000000000000000000000000000000000000000000000008152600401610f0e906135d7565b60405180910390fd5b610f228a8a8a6110cd565b50505050505050505050565b6000600160008473ffffffffffffffffffffffffffffffffffffffff1673ffffffffffffffffffffffffffffffffffffffff16815260200190815260200160002060008373ffffffffffffffffffffffffffffffffffffffff1673ffffffffffffffffffffffffffffffffffffffff16815260200190815260200160002054905092915050565b610fbd612a6f565b600760008473ffffffffffffffffffffffffffffffffffffffff1673ffffffffffffffffffffffffffffffffffffffff1681526020019081526020016000208263ffffffff1681548110611014576110136132e0565b5b906000526020600020016040518060400160405290816000820160009054906101000a900463ffffffff1663ffffffff1663ffffffff1681526020016000820160049054906101000a90047bffffffffffffffffffffffffffffffffffffffffffffffffffffffff167bffffffffffffffffffffffffffffffffffffffffffffffffffffffff167bffffffffffffffffffffffffffffffffffffffffffffffffffffffff1681525050905092915050565b600033905090565b600073ffffffffffffffffffffffffffffffffffffffff168373ffffffffffffffffffffffffffffffffffffffff16141561113d576040517f08c379a000000000000000000000000000000000000000000000000000000000815260040161113490613669565b60405180910390fd5b600073ffffffffffffffffffffffffffffffffffffffff168273ffffffffffffffffffffffffffffffffffffffff1614156111ad576040517f08c379a00000000000000000000000000000000000000000000000000000000081526004016111a4906136fb565b60405180910390fd5b80600160008573ffffffffffffffffffffffffffffffffffffffff1673ffffffffffffffffffffffffffffffffffffffff16815260200190815260200160002060008473ffffffffffffffffffffffffffffffffffffffff1673ffffffffffffffffffffffffffffffffffffffff168152602001908152602001600020819055508173ffffffffffffffffffffffffffffffffffffffff168373ffffffffffffffffffffffffffffffffffffffff167f8c5be1e5ebec7d5bd14f71427d1e84f3dd0314c0f7b2291e5b200ac8c7c3b9258360405161128b9190612c86565b60405180910390a3505050565b6112a28282611b14565b5050565b6113278363a9059cbb60e01b84846040516024016112c592919061371b565b604051602081830303815290604052907bffffffffffffffffffffffffffffffffffffffffffffffffffffffff19166020820180517bffffffffffffffffffffffffffffffffffffffffffffffffffffffff8381831617835250505050611b32565b505050565b60006113388484610f2e565b90507fffffffffffffffffffffffffffffffffffffffffffffffffffffffffffffffff81146113b257818110156113a4576040517f08c379a000000000000000000000000000000000000000000000000000000000815260040161139b90613790565b60405180910390fd5b6113b184848484036110cd565b5b50505050565b600073ffffffffffffffffffffffffffffffffffffffff168373ffffffffffffffffffffffffffffffffffffffff161415611428576040517f08c379a000000000000000000000000000000000000000000000000000000000815260040161141f90613822565b60405180910390fd5b600073ffffffffffffffffffffffffffffffffffffffff168273ffffffffffffffffffffffffffffffffffffffff161415611498576040517f08c379a000000000000000000000000000000000000000000000000000000000815260040161148f906138b4565b60405180910390fd5b6114a3838383611bf9565b60008060008573ffffffffffffffffffffffffffffffffffffffff1673ffffffffffffffffffffffffffffffffffffffff16815260200190815260200160002054905081811015611529576040517f08c379a000000000000000000000000000000000000000000000000000000000815260040161152090613946565b60405180910390fd5b8181036000808673ffffffffffffffffffffffffffffffffffffffff1673ffffffffffffffffffffffffffffffffffffffff16815260200190815260200160002081905550816000808573ffffffffffffffffffffffffffffffffffffffff1673ffffffffffffffffffffffffffffffffffffffff16815260200190815260200160002060008282546115bc91906131ea565b925050819055508273ffffffffffffffffffffffffffffffffffffffff168473ffffffffffffffffffffffffffffffffffffffff167fddf252ad1be2c89b69c2b068fc378daa952ba7f163c4a11628f55a4df523b3ef846040516116209190612c86565b60405180910390a3611633848484611bfe565b50505050565b6116bc846323b872dd60e01b85858560405160240161165a93929190613966565b604051602081830303815290604052907bffffffffffffffffffffffffffffffffffffffffffffffffffffffff19166020820180517bffffffffffffffffffffffffffffffffffffffffffffffffffffffff8381831617835250505050611b32565b50505050565b6116cc8282611c0e565b5050565b60007f000000000000000000000000000000000000000000000000000000000000000073ffffffffffffffffffffffffffffffffffffffff163073ffffffffffffffffffffffffffffffffffffffff1614801561174c57507f000000000000000000000000000000000000000000000000000000000000000046145b15611779577f000000000000000000000000000000000000000000000000000000000000000090506117e7565b6117e47f00000000000000000000000000000000000000000000000000000000000000007f00000000000000000000000000000000000000000000000000000000000000007f0000000000000000000000000000000000000000000000000000000000000000611c9b565b90505b90565b6000808380549050905060005b8181101561186957600061180b8284611cd5565b905084868281548110611821576118206132e0565b5b9060005260206000200160000160009054906101000a900463ffffffff1663ffffffff16111561185357809250611863565b60018161186091906131ea565b91505b506117f7565b600082146118cb578460018361187f91906132ac565b815481106118905761188f6132e0565b5b9060005260206000200160000160049054906101000a90047bffffffffffffffffffffffffffffffffffffffffffffffffffffffff166118ce565b60005b7bffffffffffffffffffffffffffffffffffffffffffffffffffffffff169250505092915050565b600061190183610855565b9050600061190e8461094a565b905082600660008673ffffffffffffffffffffffffffffffffffffffff1673ffffffffffffffffffffffffffffffffffffffff16815260200190815260200160002060006101000a81548173ffffffffffffffffffffffffffffffffffffffff021916908373ffffffffffffffffffffffffffffffffffffffff1602179055508273ffffffffffffffffffffffffffffffffffffffff168273ffffffffffffffffffffffffffffffffffffffff168573ffffffffffffffffffffffffffffffffffffffff167f3134e8a2e6d97e929a7e54011ea5485d7d196dd5f0ba4d4ef95803e8e3fc257f60405160405180910390a4611a0a828483611cfb565b50505050565b600063ffffffff8016821115611a5b576040517f08c379a0000000000000000000000000000000000000000000000000000000008152600401611a5290613a0f565b60405180910390fd5b819050919050565b600081600001549050919050565b6000611a84611a7e6116d0565b83611ef4565b9050919050565b6000806000611a9c87878787611f27565b91509150611aa981612034565b8192505050949350505050565b600080600560008473ffffffffffffffffffffffffffffffffffffffff1673ffffffffffffffffffffffffffffffffffffffff1681526020019081526020016000209050611b0381611a63565b9150611b0e81612209565b50919050565b611b1e828261221f565b611b2c60086123f68361240c565b50505050565b6000611b94826040518060400160405280602081526020017f5361666545524332303a206c6f772d6c6576656c2063616c6c206661696c65648152508573ffffffffffffffffffffffffffffffffffffffff166126849092919063ffffffff16565b9050600081511115611bf45780806020019051810190611bb49190613a5b565b611bf3576040517f08c379a0000000000000000000000000000000000000000000000000000000008152600401611bea90613afa565b60405180910390fd5b5b505050565b505050565b611c0983838361269c565b505050565b611c1882826126c7565b611c20612827565b7bffffffffffffffffffffffffffffffffffffffffffffffffffffffff16611c46610635565b1115611c87576040517f08c379a0000000000000000000000000000000000000000000000000000000008152600401611c7e90613b8c565b60405180910390fd5b611c95600861284b8361240c565b50505050565b60008383834630604051602001611cb6959493929190613bac565b6040516020818303038152906040528051906020012090509392505050565b60006002828418611ce69190613c2e565b828416611cf391906131ea565b905092915050565b8173ffffffffffffffffffffffffffffffffffffffff168373ffffffffffffffffffffffffffffffffffffffff1614158015611d375750600081115b15611eef57600073ffffffffffffffffffffffffffffffffffffffff168373ffffffffffffffffffffffffffffffffffffffff1614611e1557600080611dbe600760008773ffffffffffffffffffffffffffffffffffffffff1673ffffffffffffffffffffffffffffffffffffffff1681526020019081526020016000206123f68561240c565b915091508473ffffffffffffffffffffffffffffffffffffffff167fdec2bacdd2f05b59de34da9b523dff8be42e5e38e818c82fdb0bae774387a7248383604051611e0a929190613c5f565b60405180910390a250505b600073ffffffffffffffffffffffffffffffffffffffff168273ffffffffffffffffffffffffffffffffffffffff1614611eee57600080611e97600760008673ffffffffffffffffffffffffffffffffffffffff1673ffffffffffffffffffffffffffffffffffffffff16815260200190815260200160002061284b8561240c565b915091508373ffffffffffffffffffffffffffffffffffffffff167fdec2bacdd2f05b59de34da9b523dff8be42e5e38e818c82fdb0bae774387a7248383604051611ee3929190613c5f565b60405180910390a250505b5b505050565b60008282604051602001611f09929190613d00565b60405160208183030381529060405280519060200120905092915050565b6000807f7fffffffffffffffffffffffffffffff5d576e7357a4501ddfe92f46681b20a08360001c1115611f6257600060039150915061202b565b601b8560ff1614158015611f7a5750601c8560ff1614155b15611f8c57600060049150915061202b565b600060018787878760405160008152602001604052604051611fb19493929190613d37565b6020604051602081039080840390855afa158015611fd3573d6000803e3d6000fd5b505050602060405103519050600073ffffffffffffffffffffffffffffffffffffffff168173ffffffffffffffffffffffffffffffffffffffff1614156120225760006001925092505061202b565b80600092509250505b94509492505050565b6000600481111561204857612047613d7c565b5b81600481111561205b5761205a613d7c565b5b141561206657612206565b6001600481111561207a57612079613d7c565b5b81600481111561208d5761208c613d7c565b5b14156120ce576040517f08c379a00000000000000000000000000000000000000000000000000000000081526004016120c590613df7565b60405180910390fd5b600260048111156120e2576120e1613d7c565b5b8160048111156120f5576120f4613d7c565b5b1415612136576040517f08c379a000000000000000000000000000000000000000000000000000000000815260040161212d90613e63565b60405180910390fd5b6003600481111561214a57612149613d7c565b5b81600481111561215d5761215c613d7c565b5b141561219e576040517f08c379a000000000000000000000000000000000000000000000000000000000815260040161219590613ef5565b60405180910390fd5b6004808111156121b1576121b0613d7c565b5b8160048111156121c4576121c3613d7c565b5b1415612205576040517f08c379a00000000000000000000000000000000000000000000000000000000081526004016121fc90613f87565b60405180910390fd5b5b50565b6001816000016000828254019250508190555050565b600073ffffffffffffffffffffffffffffffffffffffff168273ffffffffffffffffffffffffffffffffffffffff16141561228f576040517f08c379a000000000000000000000000000000000000000000000000000000000815260040161228690614019565b60405180910390fd5b61229b82600083611bf9565b60008060008473ffffffffffffffffffffffffffffffffffffffff1673ffffffffffffffffffffffffffffffffffffffff16815260200190815260200160002054905081811015612321576040517f08c379a0000000000000000000000000000000000000000000000000000000008152600401612318906140ab565b60405180910390fd5b8181036000808573ffffffffffffffffffffffffffffffffffffffff1673ffffffffffffffffffffffffffffffffffffffff16815260200190815260200160002081905550816002600082825461237891906132ac565b92505081905550600073ffffffffffffffffffffffffffffffffffffffff168373ffffffffffffffffffffffffffffffffffffffff167fddf252ad1be2c89b69c2b068fc378daa952ba7f163c4a11628f55a4df523b3ef846040516123dd9190612c86565b60405180910390a36123f183600084611bfe565b505050565b6000818361240491906132ac565b905092915050565b6000806000858054905090506000811461247a578560018261242e91906132ac565b8154811061243f5761243e6132e0565b5b9060005260206000200160000160049054906101000a90047bffffffffffffffffffffffffffffffffffffffffffffffffffffffff1661247d565b60005b7bffffffffffffffffffffffffffffffffffffffffffffffffffffffff1692506124ab83858763ffffffff16565b91506000811180156124fe575043866001836124c791906132ac565b815481106124d8576124d76132e0565b5b9060005260206000200160000160009054906101000a900463ffffffff1663ffffffff16145b1561258b5761250c82612861565b8660018361251a91906132ac565b8154811061252b5761252a6132e0565b5b9060005260206000200160000160046101000a8154817bffffffffffffffffffffffffffffffffffffffffffffffffffffffff02191690837bffffffffffffffffffffffffffffffffffffffffffffffffffffffff16021790555061267b565b8560405180604001604052806125a043611a10565b63ffffffff1681526020016125b485612861565b7bffffffffffffffffffffffffffffffffffffffffffffffffffffffff168152509080600181540180825580915050600190039060005260206000200160009091909190915060008201518160000160006101000a81548163ffffffff021916908363ffffffff16021790555060208201518160000160046101000a8154817bffffffffffffffffffffffffffffffffffffffffffffffffffffffff02191690837bffffffffffffffffffffffffffffffffffffffffffffffffffffffff16021790555050505b50935093915050565b606061269384846000856128cc565b90509392505050565b6126a78383836129e0565b6126c26126b384610855565b6126bc84610855565b83611cfb565b505050565b600073ffffffffffffffffffffffffffffffffffffffff168273ffffffffffffffffffffffffffffffffffffffff161415612737576040517f08c379a000000000000000000000000000000000000000000000000000000000815260040161272e90614117565b60405180910390fd5b61274360008383611bf9565b806002600082825461275591906131ea565b92505081905550806000808473ffffffffffffffffffffffffffffffffffffffff1673ffffffffffffffffffffffffffffffffffffffff16815260200190815260200160002060008282546127aa91906131ea565b925050819055508173ffffffffffffffffffffffffffffffffffffffff16600073ffffffffffffffffffffffffffffffffffffffff167fddf252ad1be2c89b69c2b068fc378daa952ba7f163c4a11628f55a4df523b3ef8360405161280f9190612c86565b60405180910390a361282360008383611bfe565b5050565b60007bffffffffffffffffffffffffffffffffffffffffffffffffffffffff905090565b6000818361285991906131ea565b905092915050565b60007bffffffffffffffffffffffffffffffffffffffffffffffffffffffff80168211156128c4576040517f08c379a00000000000000000000000000000000000000000000000000000000081526004016128bb906141a9565b60405180910390fd5b819050919050565b606082471015612911576040517f08c379a00000000000000000000000000000000000000000000000000000000081526004016129089061423b565b60405180910390fd5b61291a856129e5565b612959576040517f08c379a0000000000000000000000000000000000000000000000000000000008152600401612950906142a7565b60405180910390fd5b6000808673ffffffffffffffffffffffffffffffffffffffff168587604051612982919061430e565b60006040518083038185875af1925050503d80600081146129bf576040519150601f19603f3d011682016040523d82523d6000602084013e6129c4565b606091505b50915091506129d4828286612a08565b92505050949350505050565b505050565b6000808273ffffffffffffffffffffffffffffffffffffffff163b119050919050565b60608315612a1857829050612a68565b600083511115612a2b5782518084602001fd5b816040517f08c379a0000000000000000000000000000000000000000000000000000000008152600401612a5f9190612b46565b60405180910390fd5b9392505050565b6040518060400160405280600063ffffffff16815260200160007bffffffffffffffffffffffffffffffffffffffffffffffffffffffff1681525090565b600081519050919050565b600082825260208201905092915050565b60005b83811015612ae7578082015181840152602081019050612acc565b83811115612af6576000848401525b50505050565b6000601f19601f8301169050919050565b6000612b1882612aad565b612b228185612ab8565b9350612b32818560208601612ac9565b612b3b81612afc565b840191505092915050565b60006020820190508181036000830152612b608184612b0d565b905092915050565b600080fd5b600073ffffffffffffffffffffffffffffffffffffffff82169050919050565b6000612b9882612b6d565b9050919050565b612ba881612b8d565b8114612bb357600080fd5b50565b600081359050612bc581612b9f565b92915050565b6000819050919050565b612bde81612bcb565b8114612be957600080fd5b50565b600081359050612bfb81612bd5565b92915050565b60008060408385031215612c1857612c17612b68565b5b6000612c2685828601612bb6565b9250506020612c3785828601612bec565b9150509250929050565b60008115159050919050565b612c5681612c41565b82525050565b6000602082019050612c716000830184612c4d565b92915050565b612c8081612bcb565b82525050565b6000602082019050612c9b6000830184612c77565b92915050565b600080600060608486031215612cba57612cb9612b68565b5b6000612cc886828701612bb6565b9350506020612cd986828701612bb6565b9250506040612cea86828701612bec565b9150509250925092565b600060ff82169050919050565b612d0a81612cf4565b82525050565b6000602082019050612d256000830184612d01565b92915050565b6000819050919050565b612d3e81612d2b565b82525050565b6000602082019050612d596000830184612d35565b92915050565b600060208284031215612d7557612d74612b68565b5b6000612d8384828501612bb6565b91505092915050565b612d9581612b8d565b82525050565b6000602082019050612db06000830184612d8c565b92915050565b6000819050919050565b6000612ddb612dd6612dd184612b6d565b612db6565b612b6d565b9050919050565b6000612ded82612dc0565b9050919050565b6000612dff82612de2565b9050919050565b612e0f81612df4565b82525050565b6000602082019050612e2a6000830184612e06565b92915050565b600063ffffffff82169050919050565b612e4981612e30565b82525050565b6000602082019050612e646000830184612e40565b92915050565b600060208284031215612e8057612e7f612b68565b5b6000612e8e84828501612bec565b91505092915050565b612ea081612cf4565b8114612eab57600080fd5b50565b600081359050612ebd81612e97565b92915050565b612ecc81612d2b565b8114612ed757600080fd5b50565b600081359050612ee981612ec3565b92915050565b60008060008060008060c08789031215612f0c57612f0b612b68565b5b6000612f1a89828a01612bb6565b9650506020612f2b89828a01612bec565b9550506040612f3c89828a01612bec565b9450506060612f4d89828a01612eae565b9350506080612f5e89828a01612eda565b92505060a0612f6f89828a01612eda565b9150509295509295509295565b600080600080600080600060e0888a031215612f9b57612f9a612b68565b5b6000612fa98a828b01612bb6565b9750506020612fba8a828b01612bb6565b9650506040612fcb8a828b01612bec565b9550506060612fdc8a828b01612bec565b9450506080612fed8a828b01612eae565b93505060a0612ffe8a828b01612eda565b92505060c061300f8a828b01612eda565b91505092959891949750929550565b6000806040838503121561303557613034612b68565b5b600061304385828601612bb6565b925050602061305485828601612bb6565b9150509250929050565b61306781612e30565b811461307257600080fd5b50565b6000813590506130848161305e565b92915050565b600080604083850312156130a1576130a0612b68565b5b60006130af85828601612bb6565b92505060206130c085828601613075565b9150509250929050565b6130d381612e30565b82525050565b60007bffffffffffffffffffffffffffffffffffffffffffffffffffffffff82169050919050565b61310a816130d9565b82525050565b60408201600082015161312660008501826130ca565b5060208201516131396020850182613101565b50505050565b60006040820190506131546000830184613110565b92915050565b7f4e487b7100000000000000000000000000000000000000000000000000000000600052602260045260246000fd5b600060028204905060018216806131a157607f821691505b602082108114156131b5576131b461315a565b5b50919050565b7f4e487b7100000000000000000000000000000000000000000000000000000000600052601160045260246000fd5b60006131f582612bcb565b915061320083612bcb565b9250827fffffffffffffffffffffffffffffffffffffffffffffffffffffffffffffffff03821115613235576132346131bb565b5b828201905092915050565b7f4552433230566f7465733a20626c6f636b206e6f7420796574206d696e656400600082015250565b6000613276601f83612ab8565b915061328182613240565b602082019050919050565b600060208201905081810360008301526132a581613269565b9050919050565b60006132b782612bcb565b91506132c283612bcb565b9250828210156132d5576132d46131bb565b5b828203905092915050565b7f4e487b7100000000000000000000000000000000000000000000000000000000600052603260045260246000fd5b7f45524332303a2064656372656173656420616c6c6f77616e63652062656c6f7760008201527f207a65726f000000000000000000000000000000000000000000000000000000602082015250565b600061336b602583612ab8565b91506133768261330f565b604082019050919050565b6000602082019050818103600083015261339a8161335e565b9050919050565b7f4552433230566f7465733a207369676e61747572652065787069726564000000600082015250565b60006133d7601d83612ab8565b91506133e2826133a1565b602082019050919050565b60006020820190508181036000830152613406816133ca565b9050919050565b60006080820190506134226000830187612d35565b61342f6020830186612d8c565b61343c6040830185612c77565b6134496060830184612c77565b95945050505050565b7f4552433230566f7465733a20696e76616c6964206e6f6e636500000000000000600082015250565b6000613488601983612ab8565b915061349382613452565b602082019050919050565b600060208201905081810360008301526134b78161347b565b9050919050565b7f45524332305065726d69743a206578706972656420646561646c696e65000000600082015250565b60006134f4601d83612ab8565b91506134ff826134be565b602082019050919050565b60006020820190508181036000830152613523816134e7565b9050919050565b600060c08201905061353f6000830189612d35565b61354c6020830188612d8c565b6135596040830187612d8c565b6135666060830186612c77565b6135736080830185612c77565b61358060a0830184612c77565b979650505050505050565b7f45524332305065726d69743a20696e76616c6964207369676e61747572650000600082015250565b60006135c1601e83612ab8565b91506135cc8261358b565b602082019050919050565b600060208201905081810360008301526135f0816135b4565b9050919050565b7f45524332303a20617070726f76652066726f6d20746865207a65726f2061646460008201527f7265737300000000000000000000000000000000000000000000000000000000602082015250565b6000613653602483612ab8565b915061365e826135f7565b604082019050919050565b6000602082019050818103600083015261368281613646565b9050919050565b7f45524332303a20617070726f766520746f20746865207a65726f20616464726560008201527f7373000000000000000000000000000000000000000000000000000000000000602082015250565b60006136e5602283612ab8565b91506136f082613689565b604082019050919050565b60006020820190508181036000830152613714816136d8565b9050919050565b60006040820190506137306000830185612d8c565b61373d6020830184612c77565b9392505050565b7f45524332303a20696e73756666696369656e7420616c6c6f77616e6365000000600082015250565b600061377a601d83612ab8565b915061378582613744565b602082019050919050565b600060208201905081810360008301526137a98161376d565b9050919050565b7f45524332303a207472616e736665722066726f6d20746865207a65726f20616460008201527f6472657373000000000000000000000000000000000000000000000000000000602082015250565b600061380c602583612ab8565b9150613817826137b0565b604082019050919050565b6000602082019050818103600083015261383b816137ff565b9050919050565b7f45524332303a207472616e7366657220746f20746865207a65726f206164647260008201527f6573730000000000000000000000000000000000000000000000000000000000602082015250565b600061389e602383612ab8565b91506138a982613842565b604082019050919050565b600060208201905081810360008301526138cd81613891565b9050919050565b7f45524332303a207472616e7366657220616d6f756e742065786365656473206260008201527f616c616e63650000000000000000000000000000000000000000000000000000602082015250565b6000613930602683612ab8565b915061393b826138d4565b604082019050919050565b6000602082019050818103600083015261395f81613923565b9050919050565b600060608201905061397b6000830186612d8c565b6139886020830185612d8c565b6139956040830184612c77565b949350505050565b7f53616665436173743a2076616c756520646f65736e27742066697420696e203360008201527f3220626974730000000000000000000000000000000000000000000000000000602082015250565b60006139f9602683612ab8565b9150613a048261399d565b604082019050919050565b60006020820190508181036000830152613a28816139ec565b9050919050565b613a3881612c41565b8114613a4357600080fd5b50565b600081519050613a5581613a2f565b92915050565b600060208284031215613a7157613a70612b68565b5b6000613a7f84828501613a46565b91505092915050565b7f5361666545524332303a204552433230206f7065726174696f6e20646964206e60008201527f6f74207375636365656400000000000000000000000000000000000000000000602082015250565b6000613ae4602a83612ab8565b9150613aef82613a88565b604082019050919050565b60006020820190508181036000830152613b1381613ad7565b9050919050565b7f4552433230566f7465733a20746f74616c20737570706c79207269736b73206f60008201527f766572666c6f77696e6720766f74657300000000000000000000000000000000602082015250565b6000613b76603083612ab8565b9150613b8182613b1a565b604082019050919050565b60006020820190508181036000830152613ba581613b69565b9050919050565b600060a082019050613bc16000830188612d35565b613bce6020830187612d35565b613bdb6040830186612d35565b613be86060830185612c77565b613bf56080830184612d8c565b9695505050505050565b7f4e487b7100000000000000000000000000000000000000000000000000000000600052601260045260246000fd5b6000613c3982612bcb565b9150613c4483612bcb565b925082613c5457613c53613bff565b5b828204905092915050565b6000604082019050613c746000830185612c77565b613c816020830184612c77565b9392505050565b600081905092915050565b7f1901000000000000000000000000000000000000000000000000000000000000600082015250565b6000613cc9600283613c88565b9150613cd482613c93565b600282019050919050565b6000819050919050565b613cfa613cf582612d2b565b613cdf565b82525050565b6000613d0b82613cbc565b9150613d178285613ce9565b602082019150613d278284613ce9565b6020820191508190509392505050565b6000608082019050613d4c6000830187612d35565b613d596020830186612d01565b613d666040830185612d35565b613d736060830184612d35565b95945050505050565b7f4e487b7100000000000000000000000000000000000000000000000000000000600052602160045260246000fd5b7f45434453413a20696e76616c6964207369676e61747572650000000000000000600082015250565b6000613de1601883612ab8565b9150613dec82613dab565b602082019050919050565b60006020820190508181036000830152613e1081613dd4565b9050919050565b7f45434453413a20696e76616c6964207369676e6174757265206c656e67746800600082015250565b6000613e4d601f83612ab8565b9150613e5882613e17565b602082019050919050565b60006020820190508181036000830152613e7c81613e40565b9050919050565b7f45434453413a20696e76616c6964207369676e6174757265202773272076616c60008201527f7565000000000000000000000000000000000000000000000000000000000000602082015250565b6000613edf602283612ab8565b9150613eea82613e83565b604082019050919050565b60006020820190508181036000830152613f0e81613ed2565b9050919050565b7f45434453413a20696e76616c6964207369676e6174757265202776272076616c60008201527f7565000000000000000000000000000000000000000000000000000000000000602082015250565b6000613f71602283612ab8565b9150613f7c82613f15565b604082019050919050565b60006020820190508181036000830152613fa081613f64565b9050919050565b7f45524332303a206275726e2066726f6d20746865207a65726f2061646472657360008201527f7300000000000000000000000000000000000000000000000000000000000000602082015250565b6000614003602183612ab8565b915061400e82613fa7565b604082019050919050565b6000602082019050818103600083015261403281613ff6565b9050919050565b7f45524332303a206275726e20616d6f756e7420657863656564732062616c616e60008201527f6365000000000000000000000000000000000000000000000000000000000000602082015250565b6000614095602283612ab8565b91506140a082614039565b604082019050919050565b600060208201905081810360008301526140c481614088565b9050919050565b7f45524332303a206d696e7420746f20746865207a65726f206164647265737300600082015250565b6000614101601f83612ab8565b915061410c826140cb565b602082019050919050565b60006020820190508181036000830152614130816140f4565b9050919050565b7f53616665436173743a2076616c756520646f65736e27742066697420696e203260008201527f3234206269747300000000000000000000000000000000000000000000000000602082015250565b6000614193602783612ab8565b915061419e82614137565b604082019050919050565b600060208201905081810360008301526141c281614186565b9050919050565b7f416464726573733a20696e73756666696369656e742062616c616e636520666f60008201527f722063616c6c0000000000000000000000000000000000000000000000000000602082015250565b6000614225602683612ab8565b9150614230826141c9565b604082019050919050565b6000602082019050818103600083015261425481614218565b9050919050565b7f416464726573733a2063616c6c20746f206e6f6e2d636f6e7472616374000000600082015250565b6000614291601d83612ab8565b915061429c8261425b565b602082019050919050565b600060208201905081810360008301526142c081614284565b9050919050565b600081519050919050565b600081905092915050565b60006142e8826142c7565b6142f281856142d2565b9350614302818560208601612ac9565b80840191505092915050565b600061431a82846142dd565b91508190509291505056fea2646970667358221220a88c0a88fde278c114ee7e6641ceade148a28b0f9b6340ad2014f28f2e1a29a664736f6c63430008090033",
  "linkReferences": {},
  "deployedLinkReferences": {}
}